{
  "_format": "hh-sol-artifact-1",
  "contractName": "Shipping",
  "sourceName": "contracts/Shipping.sol",
  "abi": [
    {
      "inputs": [],
      "stateMutability": "nonpayable",
      "type": "constructor"
    },
    {
      "anonymous": false,
      "inputs": [
        {
          "indexed": false,
          "internalType": "string",
          "name": "description",
          "type": "string"
        }
      ],
      "name": "LogNewAlert",
      "type": "event"
    },
    {
      "inputs": [],
      "name": "Delivered",
      "outputs": [],
      "stateMutability": "nonpayable",
      "type": "function"
    },
    {
      "inputs": [],
      "name": "Shipped",
      "outputs": [],
      "stateMutability": "nonpayable",
      "type": "function"
    },
    {
      "inputs": [],
      "name": "Status",
      "outputs": [
        {
          "internalType": "string",
          "name": "",
          "type": "string"
        }
      ],
      "stateMutability": "view",
      "type": "function"
    }
  ],
  "bytecode": "0x6080604052348015600f57600080fd5b5060008060006101000a81548160ff021916908360028111156032576031603b565b5b0217905550606a565b7f4e487b7100000000000000000000000000000000000000000000000000000000600052602160045260246000fd5b61048f806100796000396000f3fe608060405234801561001057600080fd5b50600436106100415760003560e01c806345f09ce914610046578063779822f7146100645780637e59301e1461006e575b600080fd5b61004e610078565b60405161005b9190610330565b60405180910390f35b61006c61009c565b005b6100766100fd565b005b606060008060009054906101000a900460ff1690506100968161015e565b91505090565b60026000806101000a81548160ff021916908360028111156100c1576100c0610352565b5b02179055507fca75c80642b93c980135b8355995abae3ab06033dc81f956b3824323b4903ef56040516100f3906103cd565b60405180910390a1565b60016000806101000a81548160ff0219169083600281111561012257610121610352565b5b02179055507fca75c80642b93c980135b8355995abae3ab06033dc81f956b3824323b4903ef560405161015490610439565b60405180910390a1565b606081600281111561017357610172610352565b5b6000600281111561018757610186610352565b5b036101c9576040518060400160405280600781526020017f50656e64696e6700000000000000000000000000000000000000000000000000815250905061029b565b8160028111156101dc576101db610352565b5b600160028111156101f0576101ef610352565b5b03610232576040518060400160405280600781526020017f5368697070656400000000000000000000000000000000000000000000000000815250905061029b565b81600281111561024557610244610352565b5b60028081111561025857610257610352565b5b0361029a576040518060400160405280600981526020017f44656c6976657265640000000000000000000000000000000000000000000000815250905061029b565b5b919050565b600081519050919050565b600082825260208201905092915050565b60005b838110156102da5780820151818401526020810190506102bf565b60008484015250505050565b6000601f19601f8301169050919050565b6000610302826102a0565b61030c81856102ab565b935061031c8185602086016102bc565b610325816102e6565b840191505092915050565b6000602082019050818103600083015261034a81846102f7565b905092915050565b7f4e487b7100000000000000000000000000000000000000000000000000000000600052602160045260246000fd5b7f596f7572207061636b61676520686173206265656e2064656c69766572656400600082015250565b60006103b7601f836102ab565b91506103c282610381565b602082019050919050565b600060208201905081810360008301526103e6816103aa565b9050919050565b7f596f7572207061636b61676520686173206265656e2073686970706564000000600082015250565b6000610423601d836102ab565b915061042e826103ed565b602082019050919050565b6000602082019050818103600083015261045281610416565b905091905056fea2646970667358221220e9f96fcfd6164c43af8aee59e47b9045d079cf3473de3014c979dbd476bf77a364736f6c634300081c0033",
  "linkReferences": {},
  "deployedLinkReferences": {}
}